:0400000056EF00F0C7
:100008004C82FACF06F0FBCF07F0E9CF08F0EACF31
:1000180009F0E1CF0AF0E2CF0BF0D9CF0CF0DACF3C
:100028000DF0F3CF0EF0F4CF0FF0F6CF10F0F7CFBE
:1000380011F0F8CF12F0F5CF13F0F2BC9DA203D067
:100048009EB2CFEC09F0F2BCA0A603D0A1B6E9ECB1
:100058000DF0F2BAF2A402D0D1EC0DF0F2BC9DA6DC
:1000680003D09EB6CAEC00F013C0F5FF12C0F8FF2B
:1000780011C0F7FF10C0F6FF0FC0F4FF0EC0F3FF6A
:100088000DC0DAFF0CC0D9FF0BC0E2FF0AC0E1FFC8
:1000980009C0EAFF08C0E9FF07C0FBFF06C0FAFF76
:0800A8004C921100DFEF0CF097
:100100000030313233343536373839414243444593
:10011000460001090D020E780100FC177F0100DC8A
:100120001A8501005A1B000000000053616D706CBD
:10013000696E6720537461727465640A000A4552DF
:10014000520A000A3D3E000A006D732C204D656185
:100150007320506572696F643A20000D0A50524F47
:1001600046696C652076657220000D0A4F73632026
:1001700044656C61793A20005354415455530053FF
:10018000544152540053544F50002C20002043003F
:030190002E00003E
:100194009E96C6AE14D1C69E000E3C6E000120EEA3
:1001A40003F06B51D9266C51DA22DECF04F0DDCF97
:1001B40005F004C0D9FF05C0DAFF010EDF6E000EA2
:1001C40000016B6F000E00016C6F1200000164B33C
:1001D400120062C06BF063C06CF062C0D9FF63C0F0
:1001E400DAFFDF503D6E000120EE01F06251D926A6
:1001F4006351DA22DECF6DF0DDCF6EF0050E000123
:100204006227000E6323B30E000162190BE1000E96
:1002140000016319D8A406D0AE0E0001626F000E6F
:100224000001636F000164910001605100016219D3
:1002340008E10001615100016319D8A402D0000152
:100244006483C580020E3C6E1200C582020E3C6EB1
:100254001200C5AC06D00001662B040E4EEC0BF068
:100264001200D8904930056E4830046E0450C96EAF
:1002740048A003D00B0E3C6E1200030E3C6E12001D
:10028400C5AC06D00001662B040E4EEC0BF0120038
:10029400C58248C004F049C005F005C004F0056AF1
:1002A400060E0416000E0516F00E0410486E0550D6
:1002B400496E4880010E346E020E3C6E1200340406
:1002C400D8B41CD06DC0D9FF6EC0DAFFDECF48F0C1
:1002D400DDCF49F0000120EE03F06D51D9266E51B7
:1002E400DA22DECF67F0DDCF68F0000120EE02F005
:1002F4006D51D9266E51DA22DF50356E48C0C9FFE0
:1003040048A003D0050E3C6E1200030E3C6E120092
:10031400C5AC07D00001662BC59C050E4EEC0BF056
:10032400120035063528D8A40FD0050E00016D271C
:10033400000E6E233D2E04D0000E4EEC0BF0120086
:10034400C582020E3C6E120067C0D9FF68C0DAFF96
:10035400DF50C96E0001674B682B1200C5AC07D093
:100364000001662B040E4EEC0BF0C59C1200C586F2
:10037400080E3C6E1200080E3C6EC586120067C063
:10038400D9FF68C0DAFFC9CFDFFF0001674B682BD4
:10039400010E355ED8B404D0C59A060E3C6E03D067
:1003A400C58A37EC0DF0C5881200000E4EEC0BF038
:1003B40012000001662B060E4EEC0BF012003C50AE
:1003C400000AD8B403D7010AD8B43FD7030AD8B473
:1003D40076D7010AD8B49CD7070AD8B4E6D7010A5D
:1003E400D8B4BCD7030AD8B4C6D7010AD8B4DDD769
:1003F4000F0AD8B4C4D7020AD8B42BD7010AD8B488
:100404003FD7D7D7FBD0430E166E010E176E2DECD7
:100414000BF0000E366E010E376E12009EAA12000B
:10042400E3EC0DF00001B76F080E0001B719D8A472
:100434000ED03650D8B41200080EC7EC0DF0200EC2
:10044400C7EC0DF0080EC7EC0DF0360612000D0EC9
:100454000001B719D8A419D03650010D750EF32434
:10046400D96E000EF420DA6E000EDF6E750E156E76
:10047400000E166E72EC0CF03650D8A403D0000EA9
:10048400376E1200020E376E12001B0E0001B719F0
:10049400D8A403D0000E376E1200140E366404D0B4
:1004A400070EC7EC0DF012003650010D750EF32443
:1004B400D96E000EF420DA6EB7C0DFFF362A0001D1
:1004C400B751C7EC0DF01200170E0001B46F010E06
:1004D4000001B56F000E0001B36F000E0001B66F8E
:1004E400750E1F6E000E206E8A0E216E010E226E96
:1004F40029EC06F01FC069F020C06AF000016951C0
:1005040000016A11D8A421D02CD069C014F06AC0AB
:1005140015F0B4C0F6FFB5C0F7FF0900F5CF16F02B
:100524000900F5CF17F00A00F5CF18F0FAEC09F03E
:1005340014501510D8A404D0010E0001B36F11D0CB
:10054400050E0001B427000EB523B4C0F6FFB5C0F4
:10055400F7FF0900F5500900F5100900F510D8A4BB
:10056400D4D7B4EC0DF00001B3510001D8B41DD0C0
:10057400030E0001B425326E000E0001B521336E66
:1005840032C0F6FF33C0F7FF01D80CD00500FA6E75
:100594000900F550FD6E0900F550FE6EF850FF6E2F
:1005A400FA5012000001B66F06D03D0E166E010E11
:1005B400176E2DEC0BF00001B629D8A406D03D0E21
:1005C400166E010E176E2DEC0BF0FE0E0001B6191F
:1005D400D8A406D03D0E166E010E176E2DEC0BF04E
:1005E400FD0E0001B619D8A406D03D0E166E010EFC
:1005F400176E2DEC0BF0000E376E12003750000A08
:10060400D8B401D7010AD8B409D7030AD8A4120070
:100614005BD782A603D0326A322A01D0326A3250C2
:10062400020D82A403D0336A332A01D0336A3350D3
:10063400F3240001B36F000EF4200001B46F000135
:10064400B3510001B411D8B410D0B3C014F0B4C085
:1006540015F0010E176EF40E166EF2EC0CF014C0C9
:100664001BF015C01CF088EC08F0100E0001B32735
:10067400000EB4238AEC0DF016EC0CF0F28EF28C22
:10068400010E4FEC0DF04BC02AF02B6A4AC02CF03F
:10069400400E2D6E000E2E6E440E2F6E000E306E28
:1006A400020EB4EC04F040C014F041C015F042C096
:1006B40016F043C017F0920E186E000E196E2DEC52
:1006C4000CF044C014F045C015F046C016F047C005
:1006D40017F0950E186E000E196E2DEC0CF04BC031
:1006E4002AF02B6A4AC02CF0400E2D6E000E2E6E9E
:1006F400440E2F6E000E306E030EB4EC04F040C0B6
:1007040014F041C015F042C016F043C017F0980E23
:10071400186E000E196E2DEC0CF044C014F045C098
:1007240015F046C016F047C017F09B0E186E000E69
:10073400196E2DEC0CF04BC02AF02B6A4AC02CF039
:10074400400E2D6E000E2E6E440E2F6E000E306E77
:10075400050EB4EC04F040C014F041C015F042C0E2
:1007640016F043C017F08C0E186E000E196E2DECA7
:100774000CF044C014F045C015F046C016F047C054
:1007840017F08F0E186E000E196E2DEC0CF0000E83
:100794004FEC0DF08A0E246E000E256E82EC07F0ED
:1007A400E806D8B405D0000E00018B6F030E8A6FE3
:1007B4009E0E146E000E156EB3C016F0140E176E56
:1007C40039EC09F0939E949844EC0DF09E0E206E43
:1007D400000E216E8A0E226E000E236EC0EC05F010
:1007E40091EC0DF0938E9488120028EC0DF0C9EC76
:1007F4000BF081BA05D00BEC03F0F29EF29C0300DF
:100804008AEC0DF016EC0CF0F28EF28C939E949818
:1008140044EC0DF0CCEC0DF05B0E166E010E176E71
:1008240017EC0DF0010E37EC07F02E0EC7EC0DF0AF
:10083400000E37EC07F02E0EC7EC0DF0010E37EC6E
:1008440007F03BA48CD03B943A50D8B488D0010E26
:100854004FEC0DF04BC02AF02B6A4AC02CF0BF0EAF
:100864002D6E000E2E6EC30E2F6E000E306E020E15
:10087400B4EC04F0BFC02EF0C0C02FF0C1C030F003
:10088400C2C031F0E5EC0BF0A6EC0DF0C3C02EF0C5
:10089400C4C02FF0C5C030F0C6C031F0E5EC0BF099
:1008A4004BC02AF02B6A4AC02CF0BF0E2D6E000EEE
:1008B4002E6EC30E2F6E000E306E030EB4EC04F0D9
:1008C400A6EC0DF0BFC02EF0C0C02FF0C1C030F0B8
:1008D400C2C031F0E5EC0BF0A6EC0DF0C3C02EF075
:1008E400C4C02FF0C5C030F0C6C031F0E5EC0BF049
:1008F4004BC02AF02B6A4AC02CF0BF0E2D6E000E9E
:100904002E6EC30E2F6E000E306E050EB4EC04F086
:10091400A6EC0DF0BFC02EF0C0C02FF0C1C030F067
:10092400C2C031F0E5EC0BF0A6EC0DF0C3C02EF024
:10093400C4C02FF0C5C030F0C6C031F0E5EC0BF0F8
:10094400A6EC0DF0A2EC09F08D0E166E010E176EDA
:1009540017EC0DF0B4EC0DF0000E4FEC0DF004ECC0
:1009640002F06FD7316E84D0010EC7EC08F02AC0B4
:100974001BF02BC01CF088EC08F0030ECBEC0CF041
:100984002C5078EC0DF0DAEC0DF049EC08F02DC0A9
:10099400D9FF2EC0DAFF14C0DEFF15C0DEFF16C07B
:1009A400DEFF17C0DEFF3150C7EC08F02AC01BF091
:1009B4002BC01CF088EC08F0030ECBEC0CF02C5090
:1009C40078EC0DF0DAEC0DF049EC08F02FC0D9FF0B
:1009D40030C0DAFF14C0DEFF15C0DEFF16C0DEFF34
:1009E40017C0DEFF000EC7EC08F01200040EC7ECBF
:1009F40008F02AC01BF02BC01CF088EC08F0010E94
:100A0400CBEC0CF02C5078EC0DF0DAEC0DF049EC5A
:100A140008F02DC0D9FF2EC0DAFF14C0DEFF15C0C8
:100A2400DEFF16C0DEFF17C0DEFF3150C7EC08F052
:100A34002AC01BF02BC01CF088EC08F0010ECBEC94
:100A44000CF02C5078EC0DF0DAEC0DF049EC08F0D9
:100A54002FC0D9FF30C0DAFF14C0DEFF15C0DEFF9F
:100A640016C0DEFF17C0DEFF000EC7EC08F0120050
:100A74003150020AD8B478D7010AD8B475D7060A17
:100A8400D8A41200B3D723C029F024C02AF025C06B
:100A94002BF026C02CF029C014F02AC015F02BC06E
:100AA40016F02CC017F027C018F028C019F0000E5B
:100AB40019BEFF0E1A6E1B6E08EC08F014C029F064
:100AC40015C02AF016C02BF017C02CF0214A222A98
:100AD40029502A102B102C10D8A4DDD721C0D9FFFF
:100AE40022C0DAFF000EDF6E2106D8A0220623C042
:100AF40014F024C015F025C016F026C017F027C046
:100B040018F028C019F0000E19BEFF0E1A6E1B6EE5
:100B14006FEC09F014502D6E23C014F024C015F0AE
:100B240025C016F026C017F027C018F028C019F009
:100B3400000E19BEFF0E1A6E1B6E08EC08F014C0EE
:100B440023F015C024F016C025F017C026F0090EB6
:100B54002D6402D0070E2D26300E2D2621C0D9FF7C
:100B640022C0DAFF2DC0DFFF2106D8A022062350C1
:100B7400241025102610D8B41200B9D7000E286E00
:100B8400010E286401D005D0000EC1EC0DF0282A16
:100B9400F7D77E0EC1EC0DF020C0D9FF21C0DAFFDB
:100BA400DF50C1EC0DF0010E2024266E000E212032
:100BB400276E26C017F027C018F0000E1A6E050E17
:100BC400196E000E6FEC0BF0256E000E286E040EED
:100BD400286401D00BD026C0D9FF27C0DAFFDF502C
:100BE400C1EC0DF0264A272A282AF1D722C026F084
:100BF40023C027F020C0D9FF21C0DAFFDF50FB0F4C
:100C0400246E26C017F027C018F024C019F01A6A01
:100C140025506FEC0BF0256E000E286E0AD026C00E
:100C2400D9FF27C0DAFFDF50C1EC0DF0264A272A8E
:100C3400282A2450285CD8A0F2D72550C1EC0DF006
:100C4400010EC1EC0DF0020EC1EC0DF012001F50AC
:100C54002010D8A404D073C01FF074C020F01F501B
:100C64002010D8A405D0000E1F6E000E206E1200B6
:100C74001FC018F020C019F021C01AF022C01BF0C8
:100C840075EC0AF018501F26195020221FC0D9FFF6
:100C940020C0DAFFDF50D8A40BD0000E0001736F20
:100CA400000E0001746F73C01FF074C020F01200B6
:100CB4001FC018F020C019F021C01AF022C01BF088
:100CC4009DEC0AF018501F240001736F1950202066
:100CD4000001746F73C0D9FF74C0DAFFDF50D8B459
:100CE4000AD073C0D9FF74C0DAFF000EDF6E0001B2
:100CF400734B742B06D0000E0001736F000E0001BD
:100D0400746F1FC01FF020C020F01200196E000184
:100D140064B146D016C0D9FF17C0DAFF020EDF6EE9
:100D2400000120EE01F06051D9266151DA2214C08D
:100D3400DEFF15C0DDFF60C0D9FF61C0DAFF19C056
:100D4400DFFF000120EE03F06051D9266151DA2261
:100D540016C0DEFF17C0DDFF050E00016027000E80
:100D64006123B30E000160190BE1000E000161194B
:100D7400D8A406D0AE0E0001606F000E0001616FB2
:100D84000001649300016051000162190FE1000148
:100D9400615100016319D8A409D00001648106D00F
:100DA40016C0D9FF17C0DAFF010EDF6E16C0D9FFD7
:100DB40017C0DAFF020EDE18D8A412003C50D8A4E3
:100DC400FDD79E8612001DC021F01EC022F021C056
:100DD40014F022C015F01FC016F020C017F024EC48
:100DE4000AF014C021F015C022F01B4A1C2A21501D
:100DF4002210D8A4ECD71BC0D9FF1CC0DAFF000E08
:100E0400DF6E1B06D8A01C061DC014F01EC015F012
:100E14001FC016F020C017F00CEC0BF01450236E1A
:100E24001DC014F01EC015F01FC016F020C017F02E
:100E340024EC0AF014C01DF015C01EF0090E236442
:100E440002D0070E2326300E23261BC0D9FF1CC058
:100E5400DAFF23C0DFFF1B06D8A01C061D501E109E
:100E6400D8A4D2D71B4A1C2A1200226E630E226415
:100E740013D022C01AF01B6A000E1D6E640E1C6E85
:100E8400C6EC07F0010E1A24F66E010E1B20F76E55
:100E94000800F550C7EC0DF0090E22641DD0000EB9
:100EA400176E640E166E22C014F0156A01EC09F078
:100EB40014C01AF015C01BF0000E1D6E0A0E1C6E35
:100EC400C6EC07F0010E1A24F66E010E1B20F76E15
:100ED4000800F550C7EC0DF022C014F0156A000E9E
:100EE400176E0A0E166E01EC09F0010E1424F66E4C
:100EF400010E1520F76E0800F550C7EC0DF0120036
:100F0400000E2C6E000E296E010E286E38D02A0EAB
:100F14001D6E000E1E6E020E1F6E000E216E480E18
:100F2400206E2C0E226E000E236EC5EC0AF0020E0B
:100F34002C18D8B4FCD72C50D8A41CD028062828A8
:100F4400D8A41DD02A50080D2BC026F0050E276EFC
:100F5400D8902632272EFCD72650F326000EF422F2
:100F640024C0D9FF25C0DAFFF3CFDEFFF4CFDDFFC5
:100F7400010E1200030E2918D8B404D0292A2C0417
:100F8400D8A4C5D7000E1200000E1F6E1DAE06D0E9
:100F94001C6C1D1ED8B01D2A010E1F6E1BAE06D080
:100FA4001A6C1B1ED8B01B2A010E1F1A000E216ECC
:100FB400000E206E1C501D10D8B41CD0010E1E6EE5
:100FC40004D0D8901C361D361E2A1DAEFAD7D890F0
:100FD400203621361C501A5C1D501B58D8A005D051
:100FE4001C501A5E1D501B5A2080D8901D321C3292
:100FF4001E2EEDD71F50D8B404D0206C211ED8B0BB
:10100400212A20C01AF021C01BF01200000E1C6E11
:10101400000E1D6E000E1E6E000E1F6E185019106D
:101024001A101B10D8B42AD0010E206E06D0D89006
:10103400183619361A361B36202A1BAEF8D7D89024
:101044001C361D361E361F361850145C19501558A0
:101054001A5016581B501758D8A009D01850145EAF
:101064001950155A1A50165A1B50175A1C80D890EA
:101074001B321A3219321832202EE1D71CC014F058
:101084001DC015F01EC016F01FC017F01200D6CFF9
:1010940028F0D7CF29F029C018F0196A1A6A1B6AF8
:1010A4001AC01BF019C01AF018C019F0186A000110
:1010B40071511C6E000172511D6E1E6A1F6A1DC0A3
:1010C4001FF01CC01EF01D6A1C6A18501C24206EE0
:1010D40019501D20216E1A501E20226E1B501F20F5
:1010E400236E28502024246E000E2120256E000E2D
:1010F4002220266E000E2320276E24C014F025C063
:1011040015F026C016F027C017F0120044EC0CF0BE
:1011140014C01EF015C01FF016C020F017C021F037
:10112400120E1E1829E17A0E1F1820102110D8A4BF
:1011340023D01BC014F01CC015F0000E176E0A0E4D
:10114400166E24EC0AF014C01BF015C01CF003D07A
:101154001A0EE82EFED71B06D8A01C061B28F8E1A1
:101164001C28D8B41200F4D7060E1D6E300EE82EDB
:10117400FED71D2EFCD700D01B06D8A01C061B28AA
:10118400F3E11C28D8B41200EFD7146E1450010DEB
:10119400110EF324F66E010EF420F76E0800F5A08C
:1011A40002D0949C01D0948C1450010D110EF324A0
:1011B400F66E010EF420F76E0800F5A202D0949E9C
:1011C40001D0948E1450010D110EF324F66E010E0D
:1011D400F420F76E0800F5A402D0898801D089981C
:1011E4001450010D110EF324F66E010EF420F76E67
:1011F4000800F5A602D0898A1200899A1200000E0E
:10120400196E15AE06D0146C151ED8B0152A010E31
:10121400196E17AE04D0166C171ED8B0172A1650C4
:101224001710D8B418D0010E186E04D0D890163602
:101234001736182A17AEFAD71650145C17501558DB
:10124400D8A004D01650145E1750155AD8901732EF
:101254001632182EF1D71950D8B404D0146C151EB8
:10126400D8B0152A14C014F015C015F01200175088
:10127400050F14C0D9FF15C0DAFFDF6E20EE01F0B0
:101284001450D9261550DA22DF50F00B0109DF6E15
:1012940020EE01F01450D9261550DA22DF98DF9A97
:1012A400DF9CDF9E20EE02F01450D9261550DA227E
:1012B400010EDF6E20EE03F01450D9261550DA2209
:1012C400C7C0DEFFC8C0DDFF20EE05F01450D926EC
:1012D4001550DA2216C0DFFF1200185019101A1028
:1012E4001B10D8B424D0010E1C6E06D0D89018362A
:1012F40019361A361B361C2A1BAEF8D71850145C44
:10130400195015581A5016581B501758D8A008D001
:101314001850145E1950155A1A50165A1B50175A61
:10132400D8901B321A32193218321C2EE7D714C047
:1013340014F015C015F016C016F017C017F01200FF
:10134400320E246E000E256E82EC07F0E806D8A457
:10135400120032C01AF033C01BF0000E1D6E080ECE
:101364001C6EC6EC07F01A5089EC0CF0900E166E49
:10137400010E176E17EC0DF0070E3214146E156A79
:10138400000E176E7D0E166EF2EC0CF014C02CF0ED
:1013940015C02DF0B6EC0CF012009E9200016F4BBC
:1013A400702B3B800FD0D6EC0DF08B8A020E3F6E73
:1013B40010D03E2E0ED0E6EC0DF08B9A030E3F6E4D
:1013C4003B8607D03F50010AD8B4EDD7030AD8B4FE
:1013D400F0D739063950D8A412000A0E396E3B8270
:1013E40038063850D8A412000A0E386E3B84120016
:1013F40008D0144A152A010E1626000E1722000ED4
:10140400182214C0D9FF15C0DAFFDF50196E16C0B8
:10141400F6FF17C0F7FF18C0F8FF0800F5500008E2
:1014240019241A6E1A50D8A407D014C0D9FF15C0B5
:10143400DAFFDF50D8A4DDD71A50146E156A14BE33
:1014440015061200000E1A6E000E196E16501710B3
:10145400D8B41CD0010E186E04D0D89016361736A6
:10146400182A17AEFAD7D89019361A361650145CC3
:1014740017501558D8A005D01650145E1750155A99
:101484001980D89017321632182EEDD719C014F0DF
:101494001AC015F0120019C01BF01AC01CF0D89025
:1014A4001B361C3614C0D9FF15C0DAFF1BC0DEFF83
:1014B4001CC0DDFF14C0D9FF15C0DAFF000EDB80AD
:1014C40020EE02F01450D9261550DA2218C0DFFF9E
:1014D40020EE03F01450D9261550DA2216C0DEFF90
:1014E40017C0DDFF1200000E1E6E000E1D6E04D02C
:1014F400184A192A1D4A1E2A18C0D9FF19C0DAFF32
:10150400DF50D8B413D01AC014F01BC015F018C0A3
:10151400D9FF19C0DAFFDF501C6E1C50166E176A13
:101524008FEC0BF014501510D8A4E2D71DC018F09E
:101534001EC019F01200000E1E6E000E1D6E04D0A7
:10154400184A192A1D4A1E2A18C0D9FF19C0DAFFE1
:10155400DF50D8B413D01AC014F01BC015F018C053
:10156400D9FF19C0DAFFDF501C6E1C50166E176AC3
:101574008FEC0BF014501510D8B4E2D71DC018F03E
:101584001EC019F01200000164B11CD0A40E146E28
:10159400000E156E1DC016F01EC017F01FC018F007
:1015A40020C019F021C01AF04DEC0AF0A40E146EFC
:1015B400000E156E22C016F023C017F0010E88EC41
:1015C40006F0120022C0D9FF23C0DAFF010EDF6E3D
:1015D400120024C02AF025C02BF027AE0CD024C062
:1015E400D9FF25C0DAFF2D0EDF6E244A252A266C8A
:1015F400271ED8B0272A24C01BF025C01CF026C003
:101604001DF027C01EF028C01FF029C020F0E5EC13
:1016140006F0120016501710D8B418D0010E186E28
:1016240004D0D89016361736182A17AEFAD71650A3
:10163400145C17501558D8A004D01650145E1750D7
:10164400155AD89017321632182EF1D714C014F048
:1016540015C015F0120016D016C0F6FF17C0F7FF1C
:101664000800F5500A0AD8A403D00D0EC7EC0DF0FB
:1016740016C0F6FF17C0F7FF0800F550C7EC0DF0D1
:10168400164A172A16C0F6FF17C0F7FF0800F550D0
:101694000009D8B41200E0D7036EC584000120EE1F
:1016A40003F06B51D9266C51DA22DE50DE10D8B427
:1016B40011D0000120EE03F06B51D9266C51DA22CF
:1016C400DECF01F0DDCF02F001C0D9FF02C0DAFFA6
:1016D40003C0DFFF000E3C6E12001D6E17C01BF02E
:1016E40018C01CF0000E1F6E000E1E6E0ED01E5091
:1016F4001B24D96E1F501C20DA6EDF50146E1D504F
:101704005BEC0CF01D6E1E4A1F2A19501E5C1A5009
:101714001F58D8A0ECD71D50120014C0F6FF15C0F6
:10172400F7FF0800F5501618D8A405D014C014F01B
:1017340015C015F0120014C0F6FF15C0F7FF144AC7
:10174400152A0800F5500009D8A4E7D7000E146E36
:10175400000E156E1200AE0E0001626F000E000145
:10176400636FAE0E0001606F000E0001616F000137
:10177400648300016491000E0001666F800EC76EE1
:10178400280EC66E270EC86E9E969D861200020E07
:101794005AEC0DF04B6E030E5AEC0DF04A6E010E2E
:1017A4005AEC0DF0156E1550176E166A000E5AECB1
:1017B4000DF0186E185016240001C76F000E172084
:1017C4000001C86F1200B30E216E000E226E2EC0EF
:1017D40023F02FC024F030C025F031C026F0000ED5
:1017E400286E0A0E276E45EC05F0B30E166E000E39
:1017F400176E05EC0DF012006A0E166E010E176ED0
:101804002DEC0BF04B5089EC0CF0490E166E010ECA
:10181400176E2DEC0BF04A500A0DF35089EC0CF0C6
:10182400B4EC0DF0000E12004B0ECA6EFA0ECB6E25
:10183400000ECC6E9E929D82CA84000E3B6E000EFA
:101844000001706F000E6F6F0A0E396E0A0E386E4B
:10185400000E3F6E120020EE02F01850D9261950E7
:10186400DA2216C0DFFF20EE01F01850D9261950F5
:10187400DA2215C0DFFF18C0D9FF19C0DAFF14C07F
:10188400DFFF1200D350700B700AD8A409D0000EE9
:10189400146E240E156EF40E166E000E176E1200E2
:1018A400120E146E7A0E156E000E166E000E176E62
:1018B4001200156E15501418146E000E166E070ED5
:1018C400166401D00BD014AE05D0D8901436070E90
:1018D400141A02D0D8901436162AF1D714501200D4
:1018E40015C017F016C018F002D0174A182A17C0EE
:1018F400D9FF18C0DAFFDF5064EC0DF017C0D9FF30
:1019040018C0DAFFDF6EDF50D8B41200EED7316EA4
:101914002C0E246E000E256E3150266E276A26BECC
:101924002706000E296E0A0E286EEBEC0AF02C0E28
:10193400166E000E176E05EC0DF01200F00E8A6E96
:10194400000E896E000E7F6E000E8B6E3F0E776E5A
:10195400500E786E000E7E6E070E926EF00E936E31
:10196400DE0E946EF19E1200B30E246E000E256EF0
:101974002CC026F02DC027F0000E296E0A0E286E0A
:10198400EBEC0AF0B30E166E000E176E05EC0DF0BC
:101994001200146ED59ED5501418F80B1418D56E79
:1019A400D58A000E0001726F000E716F000ED76EA3
:1019B400000ED66EF294F28A120000EE60F0530E1E
:1019C400EE6AE806FDE100EE34F0160EEE6AE80673
:1019D400FDE14C904C92000EF86E0001F7EF03F01D
:1019E40014501602F3CF18F0F4CF19F01450170264
:1019F400F350192615501602F350192618C014F086
:101A040019C015F0120009D016C0D9FF17C0DAFFAB
:101A1400DF50C7EC0DF0164A172A16C0D9FF17C0BD
:101A2400DAFFDF50D8B41200EFD703D01850C7EC58
:101A34000DF016C0F6FF17C0F7FF164A172A080064
:101A4400F5CF18F01850D8B41200F0D79FEC0DF071
:101A5400A0EC0CF098EC0DF0ADEC0BF0E0EC0DF01C
:101A6400BBEC0DF0DDEC0DF01200050E00016D274E
:101A7400000E6E233D2E03D0040E3C6E1200010EA8
:101A84003C6E1200080EB86E900EAB6E240EAC6E57
:101A9400A00EAF6E010EB06E1200156E000EC7ECF4
:101AA40008F01550D8B402D08B8012008B9012002D
:101AB400146E14C0A9FFA69CA69EA68000F000F098
:101AC400A8501200146E7B0E146004D0600E1464CF
:101AD40001D0149A145012002B0E166E010E176EBC
:101AE4002DEC0BF0010E3A6E000E1200146E000E77
:101AF4003F6E3B9614C03EF0010E3F6E1200AB8A5F
:101B04009EAAFED7ABA202D0AB9EAB8EAE50120003
:101B1400700ED36E000ED26E000E9B6E1200000E7D
:101B2400B86E000EAB6E000EAC6E1200000ED36EDB
:101B3400000ED26E000E9B6E1200D09EA2969F9055
:101B44009F92F1949F9612008A0E166E010E176EE4
:101B540017EC0DF01200000E3A6E000E4FEC0DF073
:101B6400000E1200470E166E010E176E2DEC0BF0D0
:101B74001200AD0E6B6E6C886C906C841200146E47
:101B84009EA8FED714C0ADFF1200156E1550C1EC0F
:101B94000DF01200000E376E000E366E1200F29435
:101BA4000001714B722B1200000ED66ED58E1200FE
:101BB4003BB61200FDD7230ED56E1200900EBA6EFE
:101BC400120081EC0DF01200D59EF29A1200120060
:020000040020DA
:08000000FFFFFFFFFFFFFFFF00
:020000040030CA
:0E000000FF281F16FF8881FF03C003E00340A6
:0200000400F00A
:0800000034120105FFFFFFFFB0
:00000001FF
