:040000005AEF00F0C3
:100008004D82FACF01F0FBCF02F0E9CF03F0EACF3F
:1000180004F0E1CF05F0E2CF06F0D9CF07F0DACF50
:1000280008F0F3CF09F0F4CF0AF0F6CF0BF0F7CFD2
:100038000CF0F8CF0DF0F5CF0EF04DC00FF04EC01C
:1000480010F04FC011F050C012F0F2BC9DA203D0C6
:100058009EB22FEC04F0F2BAF2A402D0BBEC05F089
:1000680012C050F011C04FF010C04EF00FC04DF04C
:100078000EC0F5FF0DC0F8FF0CC0F7FF0BC0F6FF70
:100088000AC0F4FF09C0F3FF08C0DAFF07C0D9FFB0
:1000980006C0E2FF05C0E1FF04C0EAFF03C0E9FFB4
:1000A80002C0FBFF01C0FAFF4D92110060EF05F09E
:100200000030313233343536373839414243444592
:10021000460001090D020E0A3D3E006E020000007C
:1002200075020000007B0200000080020000000058
:100230000000000053616D706C696E67205374613B
:10024000727465640A000A4552520A000A006D730E
:100250002C204D65617320506572696F643A2000EF
:100260000D0A4F73632044656C61793A2000535442
:10027000415455530053544152540053544F50006D
:10028000534554002C2000008B9C000E1B6E050E65
:100290001A6EF0EC03F09388000E1B6E190E1A6EA6
:1002A000F0EC03F082EC04F08B8A000E0001956FF5
:1002B000000E966F000E976F000E986F000E9E6FE7
:1002C000000E9D6F8B9C2BD09E5124E10D0E9D5DE9
:1002D000D8B020D09D5100082A6E0C0E2A2628C0C6
:1002E0002BF029C02CF02A2A03D0D8902C322B32A4
:1002F0002A2EFBD7010E2B16000E2C162BC099F0C0
:100300002CC09AF000019B6B9C6B99A102D08B8A48
:1003100001D08B9AC5EC05F000019D4B9E2B9E51A0
:1003200004E1200E9D5DD8A0CFD782EC04F0000E32
:100330000001956F000E966F000E976F000E986F7C
:10034000000E9E6F000E9D6F55D081AC03D02A6ABF
:100350002A2A01D02A6A2A500001916F926B936B6E
:10036000946B9D5100082A6E1F0E2A2691C02BF017
:1003700092C02CF093C02DF094C02EF02A2A05D004
:10038000D8902B362C362D362E362A2EF9D72B50D8
:1003900095132C5096132D5097132E5098139E5151
:1003A00024E10D0E9D5DD8B020D09D5100082A6E2D
:1003B0000C0E2A2628C02BF029C02CF02A2A03D0A4
:1003C000D8902C322B322A2EFBD7010E2B16000E82
:1003D0002C162BC099F02CC09AF000019B6B9C6BE3
:1003E00099A102D08B8A01D08B9AC5EC05F000014F
:1003F0009D4B9E2B9E5104E1200E9D5DD8A0A5D75C
:100400008B8C939826C0D9FF27C0DAFF95C0DEFFFA
:1004100096C0DEFF97C0DEFF98C0DEFF12001650C8
:100420000F0F13C0D9FF14C0DAFFDF6E20EE01F00A
:100430001350D9261450DA22DF504918F00B49180E
:10044000DF6E48C017F020EE01F01350D92614508B
:10045000DA22173ADF5017180F0B1718DF6E20EE4D
:1004600002F01350D9261450DA2247C0DFFF20EEE5
:1004700003F01350D9261450DA2243C0DEFF44C0E3
:10048000DDFF20EE05F01350D9261450DA2215C0F6
:10049000DFFF20EE06F01350D9261450DA22ACC04C
:1004A000DFFF20EE07F01350D9261450DA22ABC03C
:1004B000DFFF20EE08F01350D9261450DA22AAC02C
:1004C000DFFF20EE09F01350D9261450DA22A9C01C
:1004D000DFFF20EE0AF01350D9261450DA22A8C00C
:1004E000DFFF20EE0BF01350D9261450DA22A7C0FC
:1004F000DFFF20EE0CF01350D9261450DA22A6C0EC
:10050000DFFF20EE0DF01350D9261450DA22A5C0DB
:10051000DFFF20EE0EF01350D9261450DA22A4C0CB
:10052000DFFF20EE0FF01350D9261450DA22A3C0BB
:10053000DFFF1200000E276E010E276401D005D0E8
:10054000000E93EC05F0272AF7D77E0E93EC05F00A
:100550001FC0D9FF20C0DAFFDF5093EC05F0010E79
:100560001F24256E000E2020266E25C016F026C002
:1005700017F0000E196E0F0E186E000EA3EC04F0AB
:10058000246E000E276E0E0E276401D00BD025C0FE
:10059000D9FF26C0DAFFDF5093EC05F0254A262A62
:1005A000272AF1D721C025F022C026F01FC0D9FF8D
:1005B00020C0DAFFDF50F10F236E25C016F026C0F1
:1005C00017F023C018F0196A2450A3EC04F0246E2D
:1005D000000E276E0AD025C0D9FF26C0DAFFDF50F3
:1005E00093EC05F0254A262A272A2350275CD8A019
:1005F000F2D7245093EC05F0000E93EC05F0000EBA
:1006000093EC05F01200050E89EC05F0466E060E1F
:1006100089EC05F0456E010E89EC05F0146E14505E
:10062000166E156A000E89EC05F0176E175015242A
:10063000436E000E1620446E070E89EC05F04A6EDC
:10064000020E89EC05F0496E030E89EC05F0486E48
:10065000040E89EC05F0476E080E89EC05F00001E8
:10066000AC6F090E89EC05F00001AB6F0A0E89EC46
:1006700005F00001AA6F0B0E89EC05F00001A96FCF
:100680000C0E89EC05F00001A86F0D0E89EC05F049
:100690000001A76F0E0E89EC05F00001A66F0F0E8A
:1006A00089EC05F00001A56F100E89EC05F0000142
:1006B000A46F110E89EC05F00001A36F1200750EF6
:1006C000136E000E146E4A501009156E0C0E166E45
:1006D0000FEC02F03F0E2F6E000E306EC3EC04F0F4
:1006E0003FC085F040C086F041C087F042C088F02E
:1006F0003F0E2F6E000E306EF1EC04F03FC089F01B
:1007000040C08AF041C08BF042C08CF03F0E2F6E8B
:10071000000E306EDAEC04F03FC08DF040C08EF079
:1007200041C08FF042C090F08B827EEC05F0750ED8
:100730001F6E000E206E850E216E000E226E9AEC4A
:1007400002F0000E1B6E140E1A6EF0EC03F0B0EC0B
:1007500005F08B92120073EC05F003EC03F08B8232
:100760007EEC05F0A9EC05F036EC05F0F28EF28C8B
:1007700089BA02D0898A01D0899A000E1B6E640E54
:100780001A6EF0EC03F089BA02D0898A01D0899AF6
:10079000010E1B6EF40E1A6EF0EC03F089BA02D053
:1007A000898A01D0899A010E1B6EF40E1A6EF0EC44
:1007B00003F05FEC03F0000E1B6EFA0E1A6EF0EC05
:1007C00003F0F29EF29C030089BA02D0898A01D01C
:1007D000899A000E1B6EC80E1A6EF0EC03F0F4D767
:1007E00008EC05F013C01DF014C01EF015C01FF07A
:1007F00016C020F0120E1D1829E17A0E1E181F10C7
:100800002010D8A423D01AC013F01BC014F0000E7F
:10081000166E0A0E156E59EC04F013C01AF014C0CF
:100820001BF003D01A0EE82EFED71A06D8A01B061E
:100830001A28F8E11B28D8B41200F4D7060E1C6E53
:10084000300EE82EFED71C2EFCD700D01A06D8A0FA
:100850001B061A28F3E11B28D8B41200EFD79E928A
:10086000374A382A3B800FD0B7EC05F0898A020E50
:100870003D6E10D03C2E0ED0C8EC05F0899A030EC8
:100880003D6E3B8607D03D50010AD8B4EDD7030A30
:10089000D8B4F0D74C064C50D8A412000A0E4C6EB7
:1008A0003B824B064B50D8A412000A0E4B6E3B8481
:1008B0001200000E196E000E186E15501610D8B4E6
:1008C0001CD0010E176E04D0D89015361636172A94
:1008D00016AEFAD7D890183619361550135C165044
:1008E0001458D8A005D01550135E1650145A18800D
:1008F000D89016321532172EEDD718C013F019C044
:1009000014F01200010E226E000E236E000E246EF3
:10091000000E256E11D081AC03D0216A212A01D0AE
:10092000216A2150226E236A246A256A000E1B6EFA
:10093000010E1A6EF0EC03F022042310241025108F
:10094000D8A41200E8D71E6E16C01AF017C01BF00C
:10095000000E1D6E000E1C6E0ED01C501A24D96E97
:100960001D501B20DA6EDF50136E1E501FEC05F079
:100970001E6E1C4A1D2A18501C5C19501D58D8A008
:10098000ECD71E5012009F0E266E000E276E140E1E
:10099000296E180E286E44EC01F02FC0D9FF30C02C
:1009A000DAFF9FC0DEFFA0C0DEFFA1C0DEFFA2C055
:1009B000DEFF12009F0E266E000E276E140E296EAB
:1009C000300E286E44EC01F02FC0D9FF30C0DAFFA2
:1009D0009FC0DEFFA0C0DEFFA1C0DEFFA2C0DEFF21
:1009E00012009F0E266E000E276E140E296E100E3A
:1009F000286E44EC01F02FC0D9FF30C0DAFF9FC051
:100A0000DEFFA0C0DEFFA1C0DEFFA2C0DEFF12003D
:100A1000D350700B700AD8A409D0000E136E240EA8
:100A2000146EF40E156E000E166E1200120E136E7A
:100A30007A0E146E000E156E000E166E1200146EF5
:100A400014501318136E000E156E070E156401D0A6
:100A50000BD013AE05D0D8901336070E131A02D060
:100A6000D8901336152AF1D7135012004B0ECA6EC8
:100A7000FA0ECB6E000ECC6E9E929D82CA84000E42
:100A80003B6E000E386E000E376E0A0E4C6E0A0E6C
:100A90004B6E000E3D6E1200600E8A6E000E896E67
:100AA000000E7F6E000E8B6E77687868000E7E6E8B
:100AB000000E926E600E936E000E946EF19E120008
:100AC00000EE60F0310EEE6AE806FDE100EE31F076
:100AD000120EEE6AE806FDE14D904D92000EF86EA2
:100AE0000001ABEF03F0A2EC05F04CEC05F09BEC41
:100AF00005F0C2EC05F0BFEC05F01200080EB86E70
:100B0000900EAB6E240EAC6E010EB06EA00EAF6EEA
:100B10001200136E13C0A9FFA69CA69EA68000F02B
:100B200000F0A8501200136E9EA8FED713C0ADFFB0
:100B30009EB81200FDD7000ED36E000ED26E000ECE
:100B40009B6E1200D09EA2969F909F92F1949F96CA
:100B50001200700ED36E000ED26E000E9B6E12004D
:100B6000000EB86E000EAB6E000EAC6E1200000EE2
:100B7000D66ED58E1200F294354A362A1200230E14
:100B8000D56E1200900EBA6E12008B888B981200F0
:060B9000D59EF29A12004E
:020000040020DA
:08000000FFFFFFFFFFFFFFFF00
:020000040030CA
:0E000000FF281F16FF8881FF03C003E00340A6
:0200000400F00A
:1000000002000200000112004E6F20536572696108
:080010006C23FFFFFFFFFFFF5F
:00000001FF
