:0400000056EF00F0C7
:100008004C82FACF06F0FBCF07F0E9CF08F0EACF31
:1000180009F0E1CF0AF0E2CF0BF0D9CF0CF0DACF3C
:100028000DF0F3CF0EF0F4CF0FF0F6CF10F0F7CFBE
:1000380011F0F8CF12F0F5CF13F0F2BC9DA203D067
:100048009EB232EC09F0F2BCA0A603D0A1B64AECED
:100058000CF0F2BAF2A402D035EC0CF0F2BC9DA67A
:1000680003D09EB64EEC01F013C0F5FF12C0F8FFA6
:1000780011C0F7FF10C0F6FF0FC0F4FF0EC0F3FF6A
:100088000DC0DAFF0CC0D9FF0BC0E2FF0AC0E1FFC8
:1000980009C0EAFF08C0E9FF07C0FBFF06C0FAFF76
:0800A8004C92110078EF0AF000
:100200000030313233343536373839414243444592
:10021000460001090D020E7D02000000840200006C
:10022000008A020000008F020000000000000000B1
:1002300053616D706C696E6720537461727465648C
:100240000A000A4552520A000A3D3E000A006D7338
:100250002C204D65617320506572696F643A2000EF
:100260000D0A50524F46696C652076657220000D6C
:100270000A4F73632044656C61793A2000535441FE
:100280005455530053544152540053544F5000534B
:100290004554002C20002043002E00009E96C6AE40
:1002A00014D1C69E000E3E6E000120EE03F0715187
:1002B000D9267251DA22DECF04F0DDCF05F004C07A
:1002C000D9FF05C0DAFF010EDF6E000E0001716F6D
:1002D000000E0001726F1200000164B3120062C0D0
:1002E00071F063C072F062C0D9FF63C0DAFFDF5003
:1002F0003D6E000120EE01F06251D9266351DA22F1
:10030000DECF73F0DDCF74F0050E00016227000E22
:100310006323C90E000162190BE1000E000163198D
:10032000D8A406D0C40E0001626F000E0001636FF6
:1003300000016491000160510001621908E10001AF
:10034000615100016319D8A402D000016483C58003
:10035000020E3E6E1200C582020E3E6E1200C5AC49
:1003600006D00001662B040E37EC0AF01200D8907C
:100370004830056E4730046E0450C96E47A003D064
:100380000B0E3E6E1200030E3E6E1200C5AC06D080
:100390000001662B040E37EC0AF01200C58247C03C
:1003A00004F048C005F005C004F0056A060E041606
:1003B000000E0516F00E0410476E0550486E47807B
:1003C000010E3B6E020E3E6E12003B04D8B41CD0F0
:1003D00073C0D9FF74C0DAFFDECF47F0DDCF48F03D
:1003E000000120EE03F07351D9267451DA22DECFDA
:1003F0006FF0DDCF70F0000120EE02F07351D926CE
:100400007451DA22DF503C6E47C0C9FF47A003D0C9
:10041000050E3E6E1200030E3E6E1200C5AC07D0F4
:100420000001662BC59C050E37EC0AF012003C0655
:100430003C28D8A40FD0050E00017327000E7423AA
:100440003D2E04D0000E37EC0AF01200C582020ED9
:100450003E6E12006FC0D9FF70C0DAFFDF50C96E68
:1004600000016F4B702B1200C5AC07D00001662B4A
:10047000040E37EC0AF0C59C1200C586080E3E6ECD
:100480001200080E3E6EC58612006FC0D9FF70C004
:10049000DAFFC9CFDFFF00016F4B702B010E3C5E0E
:1004A000D8B404D0C59A060E3E6E03D0C58AC0ECFF
:1004B0000BF0C5881200000E37EC0AF012000001A4
:1004C000662B060E37EC0AF012003E50000AD8B434
:1004D00003D7010AD8B43FD7030AD8B476D7010AA4
:1004E000D8B49CD7070AD8B4E6D7010AD8B4BCD789
:1004F000030AD8B4C6D7010AD8B4DDD70F0AD8B4D6
:10050000C4D7020AD8B42BD7010AD8B43FD7D7D75B
:1005100082A603D0326A322A01D0326A3250020DEA
:1005200082A403D0336A332A01D0336A3350F324D0
:100530000001CB6F000EF4200001CC6F0001CB5105
:100540000001CC11D8B410D0CBC014F0CCC015F041
:10055000020E176EEE0E166E7BEC0BF014C01BF045
:1005600015C01CF0EBEC07F023EC0CF0E0EC0AF00B
:10057000F28EF28C010ECDEC0BF04AC02AF02B6A01
:1005800049C02CF0430E2D6E000E2E6E3F0E2F6EC6
:10059000000E306E020E17EC04F043C014F044C09D
:1005A00015F045C016F046C017F07D0E186E000E0F
:1005B000196EF7EC0AF03FC014F040C015F041C0CE
:1005C00016F042C017F0800E186E000E196EF7EC90
:1005D0000AF04AC02AF02B6A49C02CF0430E2D6E57
:1005E000000E2E6E3F0E2F6E000E306E030E17ECB7
:1005F00004F043C014F044C015F045C016F046C0E6
:1006000017F0830E186E000E196EF7EC0AF03FC05B
:1006100014F040C015F041C016F042C017F0860E2D
:10062000186E000E196EF7EC0AF0000E436E000E05
:10063000446E000E456E000E466E000E3F6E000EBC
:10064000406E000E416E000E426E43C014F044C076
:1006500015F045C016F046C017F0770E186E000E64
:10066000196EF7EC0AF03FC014F040C015F041C01D
:1006700016F042C017F07A0E186E000E196EF7ECE5
:100680000AF0000ECDEC0BF0C90E246E000E256EA4
:10069000E5EC06F0E806D8B406D0000E0001766F4F
:1006A000030E756F04D0C9C075F0CAC076F0EBC0F8
:1006B00089F0EAC08AF0E9C08BF0E8C08CF0E7C0AE
:1006C0008DF0E6C08EF0E5C08FF0E4C090F0E3C09E
:1006D00091F0E2C092F0B40E146E000E156ECBC015
:1006E00016F01E0E176E9CEC08F08B80D8EC0BF009
:1006F000B40E206E000E216E750E226E000E236E5B
:1007000023EC05F0F6EC0BF08B901200B1EC0BF043
:1007100089EC05F094908B9088EC02F0F29EF29CAC
:10072000030023EC0CF0E0EC0AF0F28EF28CD8EC33
:100730000BF0600E166E020E176EA0EC0BF0010EA1
:100740009AEC06F02E0E30EC0CF0000E9AEC06F04F
:100750002E0E30EC0CF0000E9AEC06F007EC0CF0CC
:100760003AA4FED73A944B50D8B4FAD7010ECDEC48
:100770000BF04AC02AF02B6A49C02CF0D50E2D6E22
:10078000000E2E6ED90E2F6E000E306E020E17EC7C
:1007900004F0D5C02EF0D6C02FF0D7C030F0D8C0AE
:1007A00031F0B0EC0AF01CEC0CF0D9C02EF0DAC03D
:1007B0002FF0DBC030F0DCC031F0B0EC0AF04AC002
:1007C0002AF02B6A49C02CF0D50E2D6E000E2E6E2D
:1007D000D90E2F6E000E306E030E17EC04F01CECD9
:1007E0000CF0D5C02EF0D6C02FF0D7C030F0D8C056
:1007F00031F0B0EC0AF01CEC0CF0D9C02EF0DAC0ED
:100800002FF0DBC030F0DCC031F0B0EC0AF01CECB3
:100810000CF005EC09F0960E166E020E176EA0ECA9
:100820000BF007EC0CF0000ECDEC0BF099D7316E0D
:1008300084D0010E2AEC08F02AC01BF02BC01CF05B
:10084000EBEC07F0030E67EC0BF02C50EDEC0BF02B
:1008500044EC0CF0ACEC07F02DC0D9FF2EC0DAFF51
:1008600014C0DEFF15C0DEFF16C0DEFF17C0DEFFBE
:1008700031502AEC08F02AC01BF02BC01CF0EBEC26
:1008800007F0030E67EC0BF02C50EDEC0BF044EC92
:100890000CF0ACEC07F02FC0D9FF30C0DAFF14C069
:1008A000DEFF15C0DEFF16C0DEFF17C0DEFF000E44
:1008B0002AEC08F01200040E2AEC08F02AC01BF003
:1008C0002BC01CF0EBEC07F0010E67EC0BF02C508A
:1008D000EDEC0BF044EC0CF0ACEC07F02DC0D9FFC4
:1008E0002EC0DAFF14C0DEFF15C0DEFF16C0DEFF2B
:1008F00017C0DEFF31502AEC08F02AC01BF02BC0D5
:100900001CF0EBEC07F0010E67EC0BF02C50EDEC5B
:100910000BF044EC0CF0ACEC07F02FC0D9FF30C06A
:10092000DAFF14C0DEFF15C0DEFF16C0DEFF17C001
:10093000DEFF000E2AEC08F012003150020AD8B493
:1009400078D7010AD8B475D7060AD8A41200B3D74D
:1009500023C029F024C02AF025C02BF026C02CF09B
:1009600029C014F02AC015F02BC016F02CC017F0C7
:1009700027C018F028C019F0000E19BEFF0E1A6E1D
:100980001B6E6BEC07F014C029F015C02AF016C0DE
:100990002BF017C02CF0214A222A29502A102B10A4
:1009A0002C10D8A4DDD721C0D9FF22C0DAFF000E59
:1009B000DF6E2106D8A0220623C014F024C015F053
:1009C00025C016F026C017F027C018F028C019F06F
:1009D000000E19BEFF0E1A6E1B6ED2EC08F01450FA
:1009E0002D6E23C014F024C015F025C016F026C0CB
:1009F00017F027C018F028C019F0000E19BEFF0E1E
:100A00001A6E1B6E6BEC07F014C023F015C024F0B7
:100A100016C025F017C026F0090E2D6402D0070E6F
:100A20002D26300E2D2621C0D9FF22C0DAFF2DC081
:100A3000DFFF2106D8A022062350241025102610FF
:100A4000D8B41200B9D7000E286E010E286401D068
:100A500005D0000EFFEC0BF0282AF7D77E0EFFEC36
:100A60000BF020C0D9FF21C0DAFFDF50FFEC0BF004
:100A7000010E2024266E000E2120276E26C017F0BE
:100A800027C018F0000E1A6E050E196E000E58ECF5
:100A90000AF0256E000E286E040E286401D00BD0DB
:100AA00026C0D9FF27C0DAFFDF50FFEC0BF0264A43
:100AB000272A282AF1D722C026F023C027F020C0F9
:100AC000D9FF21C0DAFFDF50FB0F246E26C017F0DC
:100AD00027C018F024C019F01A6A255058EC0AF003
:100AE000256E000E286E0AD026C0D9FF27C0DAFF77
:100AF000DF50FFEC0BF0264A272A282A2450285CD6
:100B0000D8A0F2D72550FFEC0BF0000EFFEC0BF055
:100B10001200050EE3EC0BF04A6E060EE3EC0BF050
:100B2000496E010EE3EC0BF0156E1550176E166A48
:100B3000000EE3EC0BF0186E185016240001DD6F68
:100B4000000E17200001DE6F070EE3EC0BF0000132
:100B5000EC6F020EE3EC0BF00001E16F030EE3EC2F
:100B60000BF00001E06F040EE3EC0BF00001DF6F0F
:100B7000080EE3EC0BF00001EB6F090EE3EC0BF059
:100B80000001EA6F0A0EE3EC0BF00001E96F0B0EB7
:100B9000E3EC0BF00001E86F0C0EE3EC0BF000014E
:100BA000E76F0D0EE3EC0BF00001E66F0E0EE3ECC9
:100BB0000BF00001E56F0F0EE3EC0BF00001E46FAA
:100BC000100EE3EC0BF00001E36F110EE3EC0BF001
:100BD0000001E26F1200196E000164B146D016C028
:100BE000D9FF17C0DAFF020EDF6E000120EE01F020
:100BF0006051D9266151DA2214C0DEFF15C0DDFF35
:100C000060C0D9FF61C0DAFF19C0DFFF000120EE2C
:100C100003F06051D9266151DA2216C0DEFF17C0F9
:100C2000DDFF050E00016027000E6123C90E0001E3
:100C300060190BE1000E00016119D8A406D0C40EA2
:100C40000001606F000E0001616F000164930001FC
:100C50006051000162190FE1000161510001631947
:100C6000D8A409D00001648106D016C0D9FF17C0EE
:100C7000DAFF010EDF6E16C0D9FF17C0DAFF020ED1
:100C8000DE18D8A412003E50D8A4FDD79E861200CC
:100C90001DC021F01EC022F021C014F022C015F0AA
:100CA0001FC016F020C017F05DEC09F014C021F051
:100CB00015C022F01B4A1C2A21502210D8A4ECD7C0
:100CC0001BC0D9FF1CC0DAFF000EDF6E1B06D8A0C8
:100CD0001C061DC014F01EC015F01FC016F020C069
:100CE00017F0F5EC09F01450236E1DC014F01EC06F
:100CF00015F01FC016F020C017F05DEC09F014C00D
:100D00001DF015C01EF0090E236402D0070E232625
:100D1000300E23261BC0D9FF1CC0DAFF23C0DFFF23
:100D20001B06D8A01C061D501E10D8A4D2D71B4AE3
:100D30001C2A1200226E630E226413D022C01AF005
:100D40001B6A000E1D6E640E1C6E29EC07F0010E6E
:100D50001A24F66E020E1B20F76E0800F55030ECD8
:100D60000CF0090E22641DD0000E176E640E166E74
:100D700022C014F0156A64EC08F014C01AF015C013
:100D80001BF0000E1D6E0A0E1C6E29EC07F0010E02
:100D90001A24F66E020E1B20F76E0800F55030EC98
:100DA0000CF022C014F0156A000E176E0A0E166EB3
:100DB00064EC08F0010E1424F66E020E1520F76E96
:100DC0000800F55030EC0CF01200000E2C6E000EF6
:100DD000296E010E286E38D02A0E1D6E000E1E6E72
:100DE000020E1F6E000E216E480E206E2C0E226E1B
:100DF000000E236EAEEC09F0020E2C18D8B4FCD70E
:100E00002C50D8A41CD028062828D8A41DD02A509D
:100E1000080D2BC026F0050E276ED8902632272EFF
:100E2000FCD72650F326000EF42224C0D9FF25C09B
:100E3000DAFFF3CFDEFFF4CFDDFF010E1200030E69
:100E40002918D8B404D0292A2C04D8A4C5D7000E58
:100E50001200000E1F6E1DAE06D01C6C1D1ED8B0F9
:100E60001D2A010E1F6E1BAE06D01A6C1B1ED8B0B9
:100E70001B2A010E1F1A000E216E000E206E1C5040
:100E80001D10D8B41CD0010E1E6E04D0D8901C3694
:100E90001D361E2A1DAEFAD7D890203621361C509A
:100EA0001A5C1D501B58D8A005D01C501A5E1D504E
:100EB0001B5A2080D8901D321C321E2EEDD71F5099
:100EC000D8B404D0206C211ED8B0212A20C01AF03A
:100ED00021C01BF01200000E1C6E000E1D6E000ED5
:100EE0001E6E000E1F6E185019101A101B10D8B469
:100EF0002AD0010E206E06D0D890183619361A3630
:100F00001B36202A1BAEF8D7D8901C361D361E364D
:100F10001F361850145C195015581A5016581B508B
:100F20001758D8A009D01850145E1950155A1A50E5
:100F3000165A1B50175A1C80D8901B321A3219327D
:100F40001832202EE1D71CC014F01DC015F01EC0B1
:100F500016F01FC017F01200D6CF28F0D7CF29F017
:100F600029C018F0196A1A6A1B6A1AC01BF019C046
:100F70001AF018C019F0186A00016B511C6E0001BC
:100F80006C511D6E1E6A1F6A1DC01FF01CC01EF032
:100F90001D6A1C6A18501C24206E19501D20216ED9
:100FA0001A501E20226E1B501F20236E2850202412
:100FB000246E000E2120256E000E2220266E000ECB
:100FC0002320276E24C014F025C015F026C016F08B
:100FD00027C017F012000EEC0BF014C01EF015C065
:100FE0001FF016C020F017C021F0120E1E1829E1C4
:100FF0007A0E1F1820102110D8A423D01BC014F083
:101000001CC015F0000E176E0A0E166E5DEC09F08E
:1010100014C01BF015C01CF003D01A0EE82EFED72A
:101020001B06D8A01C061B28F8E11C28D8B4120007
:10103000F4D7060E1D6E300EE82EFED71D2EFCD7FF
:1010400000D01B06D8A01C061B28F3E11C28D8B42E
:101050001200EFD7146E1450010D110EF324F66E2A
:10106000020EF420F76E0800F5A002D0948C01D097
:10107000949C1450010D110EF324F66E020EF42010
:10108000F76E0800F5A202D0948C01D0949C145005
:10109000010D110EF324F66E020EF420F76E080017
:1010A000F5A402D0898801D089981450010D110E41
:1010B000F324F66E020EF420F76E0800F5A602D0B7
:1010C000898A1200899A1200000E196E15AE06D098
:1010D000146C151ED8B0152A010E196E17AE04D067
:1010E000166C171ED8B0172A16501710D8B418D07F
:1010F000010E186E04D0D89016361736182A17AE7F
:10110000FAD71650145C17501558D8A004D01650B2
:10111000145E1750155AD89017321632182EF1D780
:101120001950D8B404D0146C151ED8B0152A14C0A8
:1011300014F015C015F012001750050F14C0D9FF98
:1011400015C0DAFFDF6E20EE01F01450D9261550DD
:10115000DA22DF50F00B0109DF6E20EE01F01450AF
:10116000D9261550DA22DF98DF9ADF9CDF9E20EE29
:1011700002F01450D9261550DA22000EDF6E20EE50
:1011800003F01450D9261550DA22DDC0DEFFDEC090
:10119000DDFF20EE05F01450D9261550DA2216C0D6
:1011A000DFFF1200185019101A101B10D8B424D0E9
:1011B000010E1C6E06D0D890183619361A361B361A
:1011C0001C2A1BAEF8D71850145C195015581A5029
:1011D00016581B501758D8A008D01850145E195034
:1011E000155A1A50165A1B50175AD8901B321A32D9
:1011F000193218321C2EE7D714C014F015C015F0A0
:1012000016C016F017C017F01200320E246E000E32
:10121000256EE5EC06F0E806D8A4120032C01AF0FC
:1012200033C01BF0000E1D6E080E1C6E29EC07F07B
:101230001A50C9EC0AF0990E166E020E176EA0EC49
:101240000BF0070E3214146E156A000E176E7D0E29
:10125000166E7BEC0BF014C02CF015C02DF052EC88
:101260000BF012009E9200016D4B6E2B3A800FD056
:101270003AEC0CF08B8A020E396E10D0382E0ED05C
:1012800047EC0CF08B9A030E396E3A8607D0395032
:10129000010AD8B4EDD7030AD8B4F0D737063750CF
:1012A000D8A412000A0E376E3A8236063650D8A4F9
:1012B00012000A0E366E3A841200000E1A6E000EEC
:1012C000196E16501710D8B41CD0010E186E04D029
:1012D000D89016361736182A17AEFAD7D89019367E
:1012E0001A361650145C17501558D8A005D0165051
:1012F000145E1750155A1980D89017321632182ECE
:10130000EDD719C014F01AC015F0120019C01BF067
:101310001AC01CF0D8901B361C3614C0D9FF15C05B
:10132000DAFF1BC0DEFF1CC0DDFF14C0D9FF15C0F3
:10133000DAFF000EDB8020EE02F01450D9261550A3
:10134000DA2218C0DFFF20EE03F01450D926155022
:10135000DA2216C0DEFF17C0DDFF1200000164B103
:101360001CD0BA0E146E000E156E1DC016F01EC0F5
:1013700017F01FC018F020C019F021C01AF086EC39
:1013800009F0BA0E146E000E156E22C016F023C0BE
:1013900017F0010EEBEC05F0120022C0D9FF23C0BC
:1013A000DAFF010EDF6E120024C02AF025C02BF0F8
:1013B00027AE0CD024C0D9FF25C0DAFF2D0EDF6E7A
:1013C000244A252A266C271ED8B0272A24C01BF0C1
:1013D00025C01CF026C01DF027C01EF028C01FF03D
:1013E00029C020F048EC06F0120016501710D8B4AF
:1013F00018D0010E186E04D0D89016361736182A59
:1014000017AEFAD71650145C17501558D8A004D050
:101410001650145E1750155AD89017321632182EDF
:10142000F1D714C014F015C015F0120016D016C074
:10143000F6FF17C0F7FF0800F5500A0AD8A403D03A
:101440000D0E30EC0CF016C0F6FF17C0F7FF0800C9
:10145000F55030EC0CF0164A172A16C0F6FF17C0EC
:10146000F7FF0800F5500009D8B41200E0D7036E6A
:10147000C584000120EE03F07151D9267251DA22A1
:10148000DE50DE10D8B411D0000120EE03F071510F
:10149000D9267251DA22DECF01F0DDCF02F001C091
:1014A000D9FF02C0DAFF03C0DFFF000E3E6E12005C
:1014B0001D6E17C01BF018C01CF0000E1F6E000E32
:1014C0001E6E0ED01E501B24D96E1F501C20DA6ECB
:1014D000DF50146E1D5025EC0BF01D6E1E4A1F2AA6
:1014E00019501E5C1A501F58D8A0ECD71D5012007E
:1014F000960EF66E180EF76E000EF86E0900F5CF18
:101500004BF000EE60F0690EEE6AE806FDE100EED9
:1015100034F0150EEE6AE806FDE14C904C92000E98
:10152000F86E000186EF03F0C40E0001626F000E3A
:101530000001636FC40E0001606F000E0001616F57
:101540000001648300016491000E0001666F800E4B
:10155000C76E280EC66E270EC86E9E969D86120018
:10156000C90E216E000E226E2EC023F02FC024F073
:1015700030C025F031C026F0000E286E0A0E276E0E
:10158000A8EC04F0C90E166E000E176E8EEC0BF070
:101590001200316E2C0E246E000E256E3150266E18
:1015A000276A26BE2706000E296E0A0E286ED4EC86
:1015B00009F02C0E166E000E176E8EEC0BF012005A
:1015C0004B0ECA6EFA0ECB6E000ECC6E9E929D82B2
:1015D000CA84000E3A6E000E00016E6F000E6D6F31
:1015E0000A0E376E0A0E366E000E396E120020EEAD
:1015F00002F01850D9261950DA2216C0DFFF20EE6B
:1016000001F01850D9261950DA2215C0DFFF18C092
:10161000D9FF19C0DAFF14C0DFFF1200D350700BDE
:10162000700AD8A409D0000E146E240E156EF40EA4
:10163000166E000E176E1200120E146E7A0E156ED4
:10164000000E166E000E176E1200156E155014184F
:10165000146E000E166E070E166401D00BD014AE79
:1016600005D0D8901436070E141A02D0D89014362C
:10167000162AF1D714501200F00E8A6E000E896EF1
:10168000000E7F6E000E8B6E3F0E776E500E786EE2
:10169000000E7E6E070E926EF00E936EDE0E946E4E
:1016A000F19E1200C90E246E000E256E2CC026F08D
:1016B0002DC027F0000E296E0A0E286ED4EC09F01A
:1016C000C90E166E000E176E8EEC0BF01200146E23
:1016D000D59ED5501418F80B1418D56ED58A000E67
:1016E00000016C6F000E6B6F000ED76E000ED66E91
:1016F000F294F28A120014501602F3CF18F0F4CFCD
:1017000019F014501702F350192615501602F35011
:10171000192618C014F019C015F0120009D016C00F
:10172000D9FF17C0DAFFDF5030EC0CF0164A172A49
:1017300016C0D9FF17C0DAFFDF50D8B41200EFD7B8
:1017400003D0185030EC0CF016C0F6FF17C0F7FFAE
:10175000164A172A0800F5CF18F01850D8B412000E
:10176000F0D715EC0CF03CEC0BF00EEC0CF094EC1C
:101770000AF041EC0CF02AEC0CF03EEC0CF01200FC
:10178000050E00017327000E74233D2E03D0040EB6
:101790003E6E1200010E3E6E1200156E000E2AEC17
:1017A00008F01550D8B402D08B8C12008B9C12001C
:1017B000080EB86E900EAB6E240EAC6EA00EAF6E1F
:1017C000010EB06E1200146E14C0A9FFA69CA69E56
:1017D000A68000F000F0A8501200146E000E396EC2
:1017E0003A9614C038F0010E396E12009EA8FED74A
:1017F000000EB86E000EAB6E000EAC6E1200146ED2
:101800009EA8FED714C0ADFF9EB81200FDD74C0EA7
:10181000166E020E176E16EC0AF01200000ED36E52
:10182000000ED26E000E9B6E1200D09EA2969F906C
:101830009F92F1949F961200930E166E020E176EF1
:10184000A0EC0BF01200700ED36E000ED26E000EE4
:101850009B6E1200AD0E6B6E6C886C906C841200E7
:10186000156E1550FFEC0BF01200F29400016B4B5B
:101870006C2B1200000ED66ED58E1200230ED56E84
:101880001200900EBA6E12003AB61200FDD7D59E25
:07189000F29A1200120001A0
:020000040020DA
:08000000FFFFFFFFFFFFFFFF00
:020000040030CA
:0E000000FF281F16FF8881FF03C003E00340A6
:0200000400F00A
:1000000001000100000112014E6F20536572696109
:080010006C23FFFFFFFFFFFF5F
:00000001FF
